{
  "contractName": "SupplyChain",
  "abi": [
    {
      "inputs": [],
      "stateMutability": "nonpayable",
      "type": "constructor"
    },
    {
      "anonymous": false,
      "inputs": [
        {
          "indexed": true,
          "internalType": "uint256",
          "name": "productId",
          "type": "uint256"
        },
        {
          "indexed": false,
          "internalType": "string",
          "name": "name",
          "type": "string"
        },
        {
          "indexed": true,
          "internalType": "address",
          "name": "farmer",
          "type": "address"
        }
      ],
      "name": "ProductCreated",
      "type": "event"
    },
    {
      "anonymous": false,
      "inputs": [
        {
          "indexed": true,
          "internalType": "uint256",
          "name": "productId",
          "type": "uint256"
        },
        {
          "indexed": true,
          "internalType": "address",
          "name": "from",
          "type": "address"
        },
        {
          "indexed": true,
          "internalType": "address",
          "name": "to",
          "type": "address"
        },
        {
          "indexed": false,
          "internalType": "enum SupplyChain.Stage",
          "name": "stage",
          "type": "uint8"
        }
      ],
      "name": "ProductTransferred",
      "type": "event"
    },
    {
      "anonymous": false,
      "inputs": [
        {
          "indexed": true,
          "internalType": "address",
          "name": "stakeholder",
          "type": "address"
        },
        {
          "indexed": false,
          "internalType": "string",
          "name": "name",
          "type": "string"
        },
        {
          "indexed": false,
          "internalType": "enum SupplyChain.StakeholderType",
          "name": "stakeholderType",
          "type": "uint8"
        }
      ],
      "name": "StakeholderRegistered",
      "type": "event"
    },
    {
      "inputs": [],
      "name": "owner",
      "outputs": [
        {
          "internalType": "address",
          "name": "",
          "type": "address"
        }
      ],
      "stateMutability": "view",
      "type": "function"
    },
    {
      "inputs": [],
      "name": "productCounter",
      "outputs": [
        {
          "internalType": "uint256",
          "name": "",
          "type": "uint256"
        }
      ],
      "stateMutability": "view",
      "type": "function"
    },
    {
      "inputs": [
        {
          "internalType": "uint256",
          "name": "",
          "type": "uint256"
        },
        {
          "internalType": "uint256",
          "name": "",
          "type": "uint256"
        }
      ],
      "name": "productHistory",
      "outputs": [
        {
          "internalType": "uint256",
          "name": "productId",
          "type": "uint256"
        },
        {
          "internalType": "address",
          "name": "from",
          "type": "address"
        },
        {
          "internalType": "address",
          "name": "to",
          "type": "address"
        },
        {
          "internalType": "uint256",
          "name": "timestamp",
          "type": "uint256"
        },
        {
          "internalType": "uint256",
          "name": "price",
          "type": "uint256"
        },
        {
          "internalType": "enum SupplyChain.Stage",
          "name": "stage",
          "type": "uint8"
        }
      ],
      "stateMutability": "view",
      "type": "function"
    },
    {
      "inputs": [
        {
          "internalType": "uint256",
          "name": "",
          "type": "uint256"
        }
      ],
      "name": "products",
      "outputs": [
        {
          "internalType": "uint256",
          "name": "id",
          "type": "uint256"
        },
        {
          "internalType": "string",
          "name": "name",
          "type": "string"
        },
        {
          "internalType": "string",
          "name": "origin",
          "type": "string"
        },
        {
          "internalType": "address",
          "name": "farmer",
          "type": "address"
        },
        {
          "internalType": "uint256",
          "name": "harvestDate",
          "type": "uint256"
        },
        {
          "internalType": "uint256",
          "name": "price",
          "type": "uint256"
        },
        {
          "internalType": "enum SupplyChain.Stage",
          "name": "currentStage",
          "type": "uint8"
        },
        {
          "internalType": "bool",
          "name": "exists",
          "type": "bool"
        }
      ],
      "stateMutability": "view",
      "type": "function"
    },
    {
      "inputs": [
        {
          "internalType": "address",
          "name": "",
          "type": "address"
        }
      ],
      "name": "stakeholders",
      "outputs": [
        {
          "internalType": "address",
          "name": "stakeholderAddress",
          "type": "address"
        },
        {
          "internalType": "string",
          "name": "name",
          "type": "string"
        },
        {
          "internalType": "enum SupplyChain.StakeholderType",
          "name": "stakeholderType",
          "type": "uint8"
        },
        {
          "internalType": "bool",
          "name": "isRegistered",
          "type": "bool"
        }
      ],
      "stateMutability": "view",
      "type": "function"
    },
    {
      "inputs": [
        {
          "internalType": "string",
          "name": "_name",
          "type": "string"
        },
        {
          "internalType": "enum SupplyChain.StakeholderType",
          "name": "_type",
          "type": "uint8"
        }
      ],
      "name": "registerStakeholder",
      "outputs": [],
      "stateMutability": "nonpayable",
      "type": "function"
    },
    {
      "inputs": [
        {
          "internalType": "string",
          "name": "_name",
          "type": "string"
        },
        {
          "internalType": "string",
          "name": "_origin",
          "type": "string"
        },
        {
          "internalType": "uint256",
          "name": "_price",
          "type": "uint256"
        }
      ],
      "name": "createProduct",
      "outputs": [
        {
          "internalType": "uint256",
          "name": "",
          "type": "uint256"
        }
      ],
      "stateMutability": "nonpayable",
      "type": "function"
    },
    {
      "inputs": [
        {
          "internalType": "uint256",
          "name": "_productId",
          "type": "uint256"
        },
        {
          "internalType": "address",
          "name": "_to",
          "type": "address"
        },
        {
          "internalType": "uint256",
          "name": "_price",
          "type": "uint256"
        },
        {
          "internalType": "enum SupplyChain.Stage",
          "name": "_newStage",
          "type": "uint8"
        }
      ],
      "name": "transferProduct",
      "outputs": [],
      "stateMutability": "nonpayable",
      "type": "function"
    },
    {
      "inputs": [
        {
          "internalType": "uint256",
          "name": "_productId",
          "type": "uint256"
        }
      ],
      "name": "getProduct",
      "outputs": [
        {
          "internalType": "uint256",
          "name": "id",
          "type": "uint256"
        },
        {
          "internalType": "string",
          "name": "name",
          "type": "string"
        },
        {
          "internalType": "string",
          "name": "origin",
          "type": "string"
        },
        {
          "internalType": "address",
          "name": "farmer",
          "type": "address"
        },
        {
          "internalType": "uint256",
          "name": "harvestDate",
          "type": "uint256"
        },
        {
          "internalType": "uint256",
          "name": "price",
          "type": "uint256"
        },
        {
          "internalType": "enum SupplyChain.Stage",
          "name": "currentStage",
          "type": "uint8"
        }
      ],
      "stateMutability": "view",
      "type": "function"
    },
    {
      "inputs": [
        {
          "internalType": "uint256",
          "name": "_productId",
          "type": "uint256"
        }
      ],
      "name": "getProductHistory",
      "outputs": [
        {
          "components": [
            {
              "internalType": "uint256",
              "name": "productId",
              "type": "uint256"
            },
            {
              "internalType": "address",
              "name": "from",
              "type": "address"
            },
            {
              "internalType": "address",
              "name": "to",
              "type": "address"
            },
            {
              "internalType": "uint256",
              "name": "timestamp",
              "type": "uint256"
            },
            {
              "internalType": "uint256",
              "name": "price",
              "type": "uint256"
            },
            {
              "internalType": "enum SupplyChain.Stage",
              "name": "stage",
              "type": "uint8"
            }
          ],
          "internalType": "struct SupplyChain.Transaction[]",
          "name": "",
          "type": "tuple[]"
        }
      ],
      "stateMutability": "view",
      "type": "function"
    },
    {
      "inputs": [
        {
          "internalType": "address",
          "name": "_address",
          "type": "address"
        }
      ],
      "name": "getStakeholder",
      "outputs": [
        {
          "internalType": "string",
          "name": "name",
          "type": "string"
        },
        {
          "internalType": "enum SupplyChain.StakeholderType",
          "name": "stakeholderType",
          "type": "uint8"
        },
        {
          "internalType": "bool",
          "name": "isRegistered",
          "type": "bool"
        }
      ],
      "stateMutability": "view",
      "type": "function"
    },
    {
      "inputs": [],
      "name": "getAllProducts",
      "outputs": [
        {
          "internalType": "uint256[]",
          "name": "",
          "type": "uint256[]"
        }
      ],
      "stateMutability": "view",
      "type": "function"
    }
  ],
  "bytecode": "0x608060405234801561001057600080fd5b5033600460006101000a81548173ffffffffffffffffffffffffffffffffffffffff021916908373ffffffffffffffffffffffffffffffffffffffff1602179055506000600381905550612902806100696000396000f3fe608060405234801561001057600080fd5b50600436106100d1576000357c0100000000000000000000000000000000000000000000000000000000900480637acc0b201161008e5780637acc0b20146101c55780638da5cb5b146101fc578063a14222091461021a578063aca5c4a61461024a578063b9db15b414610266578063c07cfca91461029c576100d1565b806302ee3a52146100d65780631f16653b146100f45780633a7d23761461011257806357a096a11461014757806362afde251461017757806377504d8e146101a9575b600080fd5b6100de6102cf565b6040516100eb91906118d6565b60405180910390f35b6100fc610377565b6040516101099190611907565b60405180910390f35b61012c60048036038101906101279190611962565b61037d565b60405161013e96959493929190611a5a565b60405180910390f35b610161600480360381019061015c9190611abb565b610423565b60405161016e9190611c30565b60405180910390f35b610191600480360381019061018c9190611c7e565b6105fe565b6040516101a093929190611d9e565b60405180910390f35b6101c360048036038101906101be9190611f36565b6107ac565b005b6101df60048036038101906101da9190611abb565b6109cb565b6040516101f3989796959493929190611f92565b60405180910390f35b610204610b5d565b604051610211919061201e565b60405180910390f35b610234600480360381019061022f9190612039565b610b83565b6040516102419190611907565b60405180910390f35b610264600480360381019061025f91906120e9565b61102a565b005b610280600480360381019061027b9190611abb565b611460565b6040516102939796959493929190612150565b60405180910390f35b6102b660048036038101906102b19190611c7e565b61171c565b6040516102c694939291906121cd565b60405180910390f35b6060600060035467ffffffffffffffff8111156102ef576102ee611de6565b5b60405190808252806020026020018201604052801561031d5781602001602082028036833780820191505090505b5090506000600190505b600354811161036f57808260018361033f9190612248565b815181106103505761034f61227c565b5b6020026020010181815250508080610367906122ab565b915050610327565b508091505090565b60035481565b6002602052816000526040600020818154811061039957600080fd5b9060005260206000209060060201600091509150508060000154908060010160009054906101000a900473ffffffffffffffffffffffffffffffffffffffff16908060020160009054906101000a900473ffffffffffffffffffffffffffffffffffffffff16908060030154908060040154908060050160009054906101000a900460ff16905086565b60608160008082815260200190815260200160002060060160019054906101000a900460ff16610488576040517f08c379a000000000000000000000000000000000000000000000000000000000815260040161047f9061233f565b60405180910390fd5b60026000848152602001908152602001600020805480602002602001604051908101604052809291908181526020016000905b828210156105f257838290600052602060002090600602016040518060c0016040529081600082015481526020016001820160009054906101000a900473ffffffffffffffffffffffffffffffffffffffff1673ffffffffffffffffffffffffffffffffffffffff1673ffffffffffffffffffffffffffffffffffffffff1681526020016002820160009054906101000a900473ffffffffffffffffffffffffffffffffffffffff1673ffffffffffffffffffffffffffffffffffffffff1673ffffffffffffffffffffffffffffffffffffffff16815260200160038201548152602001600482015481526020016005820160009054906101000a900460ff1660048111156105cd576105cc6119e3565b5b60048111156105df576105de6119e3565b5b81525050815260200190600101906104bb565b50505050915050919050565b60606000806000600160008673ffffffffffffffffffffffffffffffffffffffff1673ffffffffffffffffffffffffffffffffffffffff1681526020019081526020016000206040518060800160405290816000820160009054906101000a900473ffffffffffffffffffffffffffffffffffffffff1673ffffffffffffffffffffffffffffffffffffffff1673ffffffffffffffffffffffffffffffffffffffff1681526020016001820180546106b59061238e565b80601f01602080910402602001604051908101604052809291908181526020018280546106e19061238e565b801561072e5780601f106107035761010080835404028352916020019161072e565b820191906000526020600020905b81548152906001019060200180831161071157829003601f168201915b505050505081526020016002820160009054906101000a900460ff16600381111561075c5761075b6119e3565b5b600381111561076e5761076d6119e3565b5b81526020016002820160019054906101000a900460ff1615151515815250509050806020015181604001518260600151935093509350509193909250565b600160003373ffffffffffffffffffffffffffffffffffffffff1673ffffffffffffffffffffffffffffffffffffffff16815260200190815260200160002060020160019054906101000a900460ff161561083c576040517f08c379a00000000000000000000000000000000000000000000000000000000081526004016108339061240b565b60405180910390fd5b60405180608001604052803373ffffffffffffffffffffffffffffffffffffffff16815260200183815260200182600381111561087c5761087b6119e3565b5b815260200160011515815250600160003373ffffffffffffffffffffffffffffffffffffffff1673ffffffffffffffffffffffffffffffffffffffff16815260200190815260200160002060008201518160000160006101000a81548173ffffffffffffffffffffffffffffffffffffffff021916908373ffffffffffffffffffffffffffffffffffffffff160217905550602082015181600101908161092391906125dd565b5060408201518160020160006101000a81548160ff0219169083600381111561094f5761094e6119e3565b5b021790555060608201518160020160016101000a81548160ff0219169083151502179055509050503373ffffffffffffffffffffffffffffffffffffffff167f816ef0ec1a5b0eda2fac222a6ee8376c567f065c853574681996ab2bfe38694c83836040516109bf9291906126af565b60405180910390a25050565b60006020528060005260406000206000915090508060000154908060010180546109f49061238e565b80601f0160208091040260200160405190810160405280929190818152602001828054610a209061238e565b8015610a6d5780601f10610a4257610100808354040283529160200191610a6d565b820191906000526020600020905b815481529060010190602001808311610a5057829003601f168201915b505050505090806002018054610a829061238e565b80601f0160208091040260200160405190810160405280929190818152602001828054610aae9061238e565b8015610afb5780601f10610ad057610100808354040283529160200191610afb565b820191906000526020600020905b815481529060010190602001808311610ade57829003601f168201915b5050505050908060030160009054906101000a900473ffffffffffffffffffffffffffffffffffffffff16908060040154908060050154908060060160009054906101000a900460ff16908060060160019054906101000a900460ff16905088565b600460009054906101000a900473ffffffffffffffffffffffffffffffffffffffff1681565b6000600160003373ffffffffffffffffffffffffffffffffffffffff1673ffffffffffffffffffffffffffffffffffffffff16815260200190815260200160002060020160019054906101000a900460ff16610c14576040517f08c379a0000000000000000000000000000000000000000000000000000000008152600401610c0b9061272b565b60405180910390fd5b60006003811115610c2857610c276119e3565b5b600160003373ffffffffffffffffffffffffffffffffffffffff1673ffffffffffffffffffffffffffffffffffffffff16815260200190815260200160002060020160009054906101000a900460ff166003811115610c8a57610c896119e3565b5b14610cca576040517f08c379a0000000000000000000000000000000000000000000000000000000008152600401610cc190612797565b60405180910390fd5b60036000815480929190610cdd906122ab565b919050555060405180610100016040528060035481526020018581526020018481526020013373ffffffffffffffffffffffffffffffffffffffff16815260200142815260200183815260200160006004811115610d3e57610d3d6119e3565b5b8152602001600115158152506000806003548152602001908152602001600020600082015181600001556020820151816001019081610d7d91906125dd565b506040820151816002019081610d9391906125dd565b5060608201518160030160006101000a81548173ffffffffffffffffffffffffffffffffffffffff021916908373ffffffffffffffffffffffffffffffffffffffff1602179055506080820151816004015560a0820151816005015560c08201518160060160006101000a81548160ff02191690836004811115610e1a57610e196119e3565b5b021790555060e08201518160060160016101000a81548160ff0219169083151502179055509050506002600060035481526020019081526020016000206040518060c001604052806003548152602001600073ffffffffffffffffffffffffffffffffffffffff1681526020013373ffffffffffffffffffffffffffffffffffffffff16815260200142815260200184815260200160006004811115610ec357610ec26119e3565b5b81525090806001815401808255809150506001900390600052602060002090600602016000909190919091506000820151816000015560208201518160010160006101000a81548173ffffffffffffffffffffffffffffffffffffffff021916908373ffffffffffffffffffffffffffffffffffffffff16021790555060408201518160020160006101000a81548173ffffffffffffffffffffffffffffffffffffffff021916908373ffffffffffffffffffffffffffffffffffffffff160217905550606082015181600301556080820151816004015560a08201518160050160006101000a81548160ff02191690836004811115610fc657610fc56119e3565b5b021790555050503373ffffffffffffffffffffffffffffffffffffffff166003547faf6ffb6277511513e7d579327cc1fc57f0266df2fb11a60b13487b8c9cd2c3888660405161101691906127b7565b60405180910390a360035490509392505050565b600160003373ffffffffffffffffffffffffffffffffffffffff1673ffffffffffffffffffffffffffffffffffffffff16815260200190815260200160002060020160019054906101000a900460ff166110b9576040517f08c379a00000000000000000000000000000000000000000000000000000000081526004016110b09061272b565b60405180910390fd5b8360008082815260200190815260200160002060060160019054906101000a900460ff1661111c576040517f08c379a00000000000000000000000000000000000000000000000000000000081526004016111139061233f565b60405180910390fd5b600080600087815260200190815260200160002090508060060160009054906101000a900460ff166004811115611156576111556119e3565b5b836004811115611169576111686119e3565b5b116111a9576040517f08c379a00000000000000000000000000000000000000000000000000000000081526004016111a090612825565b60405180910390fd5b600160008673ffffffffffffffffffffffffffffffffffffffff1673ffffffffffffffffffffffffffffffffffffffff16815260200190815260200160002060020160019054906101000a900460ff16611238576040517f08c379a000000000000000000000000000000000000000000000000000000000815260040161122f90612891565b60405180910390fd5b828160060160006101000a81548160ff0219169083600481111561125f5761125e6119e3565b5b0217905550838160050181905550600260008781526020019081526020016000206040518060c001604052808881526020013373ffffffffffffffffffffffffffffffffffffffff1681526020018773ffffffffffffffffffffffffffffffffffffffff1681526020014281526020018681526020018560048111156112e8576112e76119e3565b5b81525090806001815401808255809150506001900390600052602060002090600602016000909190919091506000820151816000015560208201518160010160006101000a81548173ffffffffffffffffffffffffffffffffffffffff021916908373ffffffffffffffffffffffffffffffffffffffff16021790555060408201518160020160006101000a81548173ffffffffffffffffffffffffffffffffffffffff021916908373ffffffffffffffffffffffffffffffffffffffff160217905550606082015181600301556080820151816004015560a08201518160050160006101000a81548160ff021916908360048111156113eb576113ea6119e3565b5b021790555050508473ffffffffffffffffffffffffffffffffffffffff163373ffffffffffffffffffffffffffffffffffffffff16877fb8ec5bed6096f539515867ed6d75eac9421558314f8dcb1349f7c60978cad2988660405161145091906128b1565b60405180910390a4505050505050565b60006060806000806000808760008082815260200190815260200160002060060160019054906101000a900460ff166114ce576040517f08c379a00000000000000000000000000000000000000000000000000000000081526004016114c59061233f565b60405180910390fd5b60008060008b815260200190815260200160002060405180610100016040529081600082015481526020016001820180546115089061238e565b80601f01602080910402602001604051908101604052809291908181526020018280546115349061238e565b80156115815780601f1061155657610100808354040283529160200191611581565b820191906000526020600020905b81548152906001019060200180831161156457829003601f168201915b5050505050815260200160028201805461159a9061238e565b80601f01602080910402602001604051908101604052809291908181526020018280546115c69061238e565b80156116135780601f106115e857610100808354040283529160200191611613565b820191906000526020600020905b8154815290600101906020018083116115f657829003601f168201915b505050505081526020016003820160009054906101000a900473ffffffffffffffffffffffffffffffffffffffff1673ffffffffffffffffffffffffffffffffffffffff1673ffffffffffffffffffffffffffffffffffffffff16815260200160048201548152602001600582015481526020016006820160009054906101000a900460ff1660048111156116ab576116aa6119e3565b5b60048111156116bd576116bc6119e3565b5b81526020016006820160019054906101000a900460ff1615151515815250509050806000015181602001518260400151836060015184608001518560a001518660c0015198509850985098509850985098505050919395979092949650565b60016020528060005260406000206000915090508060000160009054906101000a900473ffffffffffffffffffffffffffffffffffffffff16908060010180546117659061238e565b80601f01602080910402602001604051908101604052809291908181526020018280546117919061238e565b80156117de5780601f106117b3576101008083540402835291602001916117de565b820191906000526020600020905b8154815290600101906020018083116117c157829003601f168201915b5050505050908060020160009054906101000a900460ff16908060020160019054906101000a900460ff16905084565b600081519050919050565b600082825260208201905092915050565b6000819050602082019050919050565b6000819050919050565b61184d8161183a565b82525050565b600061185f8383611844565b60208301905092915050565b6000602082019050919050565b60006118838261180e565b61188d8185611819565b93506118988361182a565b8060005b838110156118c95781516118b08882611853565b97506118bb8361186b565b92505060018101905061189c565b5085935050505092915050565b600060208201905081810360008301526118f08184611878565b905092915050565b6119018161183a565b82525050565b600060208201905061191c60008301846118f8565b92915050565b6000604051905090565b600080fd5b600080fd5b61193f8161183a565b811461194a57600080fd5b50565b60008135905061195c81611936565b92915050565b600080604083850312156119795761197861192c565b5b60006119878582860161194d565b92505060206119988582860161194d565b9150509250929050565b600073ffffffffffffffffffffffffffffffffffffffff82169050919050565b60006119cd826119a2565b9050919050565b6119dd816119c2565b82525050565b7f4e487b7100000000000000000000000000000000000000000000000000000000600052602160045260246000fd5b60058110611a2357611a226119e3565b5b50565b6000819050611a3482611a12565b919050565b6000611a4482611a26565b9050919050565b611a5481611a39565b82525050565b600060c082019050611a6f60008301896118f8565b611a7c60208301886119d4565b611a8960408301876119d4565b611a9660608301866118f8565b611aa360808301856118f8565b611ab060a0830184611a4b565b979650505050505050565b600060208284031215611ad157611ad061192c565b5b6000611adf8482850161194d565b91505092915050565b600081519050919050565b600082825260208201905092915050565b6000819050602082019050919050565b611b1d816119c2565b82525050565b611b2c81611a39565b82525050565b60c082016000820151611b486000850182611844565b506020820151611b5b6020850182611b14565b506040820151611b6e6040850182611b14565b506060820151611b816060850182611844565b506080820151611b946080850182611844565b5060a0820151611ba760a0850182611b23565b50505050565b6000611bb98383611b32565b60c08301905092915050565b6000602082019050919050565b6000611bdd82611ae8565b611be78185611af3565b9350611bf283611b04565b8060005b83811015611c23578151611c0a8882611bad565b9750611c1583611bc5565b925050600181019050611bf6565b5085935050505092915050565b60006020820190508181036000830152611c4a8184611bd2565b905092915050565b611c5b816119c2565b8114611c6657600080fd5b50565b600081359050611c7881611c52565b92915050565b600060208284031215611c9457611c9361192c565b5b6000611ca284828501611c69565b91505092915050565b600081519050919050565b600082825260208201905092915050565b60005b83811015611ce5578082015181840152602081019050611cca565b60008484015250505050565b6000601f19601f8301169050919050565b6000611d0d82611cab565b611d178185611cb6565b9350611d27818560208601611cc7565b611d3081611cf1565b840191505092915050565b60048110611d4c57611d4b6119e3565b5b50565b6000819050611d5d82611d3b565b919050565b6000611d6d82611d4f565b9050919050565b611d7d81611d62565b82525050565b60008115159050919050565b611d9881611d83565b82525050565b60006060820190508181036000830152611db88186611d02565b9050611dc76020830185611d74565b611dd46040830184611d8f565b949350505050565b600080fd5b600080fd5b7f4e487b7100000000000000000000000000000000000000000000000000000000600052604160045260246000fd5b611e1e82611cf1565b810181811067ffffffffffffffff82111715611e3d57611e3c611de6565b5b80604052505050565b6000611e50611922565b9050611e5c8282611e15565b919050565b600067ffffffffffffffff821115611e7c57611e7b611de6565b5b611e8582611cf1565b9050602081019050919050565b82818337600083830152505050565b6000611eb4611eaf84611e61565b611e46565b905082815260208101848484011115611ed057611ecf611de1565b5b611edb848285611e92565b509392505050565b600082601f830112611ef857611ef7611ddc565b5b8135611f08848260208601611ea1565b91505092915050565b60048110611f1e57600080fd5b50565b600081359050611f3081611f11565b92915050565b60008060408385031215611f4d57611f4c61192c565b5b600083013567ffffffffffffffff811115611f6b57611f6a611931565b5b611f7785828601611ee3565b9250506020611f8885828601611f21565b9150509250929050565b600061010082019050611fa8600083018b6118f8565b8181036020830152611fba818a611d02565b90508181036040830152611fce8189611d02565b9050611fdd60608301886119d4565b611fea60808301876118f8565b611ff760a08301866118f8565b61200460c0830185611a4b565b61201160e0830184611d8f565b9998505050505050505050565b600060208201905061203360008301846119d4565b92915050565b6000806000606084860312156120525761205161192c565b5b600084013567ffffffffffffffff8111156120705761206f611931565b5b61207c86828701611ee3565b935050602084013567ffffffffffffffff81111561209d5761209c611931565b5b6120a986828701611ee3565b92505060406120ba8682870161194d565b9150509250925092565b600581106120d157600080fd5b50565b6000813590506120e3816120c4565b92915050565b600080600080608085870312156121035761210261192c565b5b60006121118782880161194d565b945050602061212287828801611c69565b93505060406121338782880161194d565b9250506060612144878288016120d4565b91505092959194509250565b600060e082019050612165600083018a6118f8565b81810360208301526121778189611d02565b9050818103604083015261218b8188611d02565b905061219a60608301876119d4565b6121a760808301866118f8565b6121b460a08301856118f8565b6121c160c0830184611a4b565b98975050505050505050565b60006080820190506121e260008301876119d4565b81810360208301526121f48186611d02565b90506122036040830185611d74565b6122106060830184611d8f565b95945050505050565b7f4e487b7100000000000000000000000000000000000000000000000000000000600052601160045260246000fd5b60006122538261183a565b915061225e8361183a565b925082820390508181111561227657612275612219565b5b92915050565b7f4e487b7100000000000000000000000000000000000000000000000000000000600052603260045260246000fd5b60006122b68261183a565b91507fffffffffffffffffffffffffffffffffffffffffffffffffffffffffffffffff82036122e8576122e7612219565b5b600182019050919050565b7f50726f6475637420646f6573206e6f7420657869737400000000000000000000600082015250565b6000612329601683611cb6565b9150612334826122f3565b602082019050919050565b600060208201905081810360008301526123588161231c565b9050919050565b7f4e487b7100000000000000000000000000000000000000000000000000000000600052602260045260246000fd5b600060028204905060018216806123a657607f821691505b6020821081036123b9576123b861235f565b5b50919050565b7f5374616b65686f6c64657220616c726561647920726567697374657265640000600082015250565b60006123f5601e83611cb6565b9150612400826123bf565b602082019050919050565b60006020820190508181036000830152612424816123e8565b9050919050565b60008190508160005260206000209050919050565b60006020601f8301049050919050565b60008160020a8302905092915050565b6000600883026124907fffffffffffffffffffffffffffffffffffffffffffffffffffffffffffffffff82612450565b61249a8683612450565b95508019841693508086168417925050509392505050565b6000819050919050565b60006124d76124d26124cd8461183a565b6124b2565b61183a565b9050919050565b6000819050919050565b6124f1836124bc565b6125056124fd826124de565b848454612460565b825550505050565b600090565b61251a61250d565b6125258184846124e8565b505050565b5b818110156125495761253e600082612512565b60018101905061252b565b5050565b601f82111561258e5761255f8161242b565b61256884612440565b81016020851015612577578190505b61258b61258385612440565b83018261252a565b50505b505050565b60008160020a8304905092915050565b60006125b460001984600802612593565b1980831691505092915050565b60006125cd83836125a3565b9150826002028217905092915050565b6125e682611cab565b67ffffffffffffffff8111156125ff576125fe611de6565b5b612609825461238e565b61261482828561254d565b600060209050601f8311600181146126475760008415612635578287015190505b61263f85826125c1565b8655506126a7565b601f1984166126558661242b565b60005b8281101561267d57848901518255600182019150602085019450602081019050612658565b8683101561269a5784890151612696601f8916826125a3565b8355505b6001600288020188555050505b505050505050565b600060408201905081810360008301526126c98185611d02565b90506126d86020830184611d74565b9392505050565b7f5374616b65686f6c646572206e6f742072656769737465726564000000000000600082015250565b6000612715601a83611cb6565b9150612720826126df565b602082019050919050565b6000602082019050818103600083015261274481612708565b9050919050565b7f4f6e6c79206661726d6572732063616e206372656174652070726f6475637473600082015250565b6000612781602083611cb6565b915061278c8261274b565b602082019050919050565b600060208201905081810360008301526127b081612774565b9050919050565b600060208201905081810360008301526127d18184611d02565b905092915050565b7f496e76616c6964207374616765207472616e736974696f6e0000000000000000600082015250565b600061280f601883611cb6565b915061281a826127d9565b602082019050919050565b6000602082019050818103600083015261283e81612802565b9050919050565b7f5265636569766572206e6f742072656769737465726564000000000000000000600082015250565b600061287b601783611cb6565b915061288682612845565b602082019050919050565b600060208201905081810360008301526128aa8161286e565b9050919050565b60006020820190506128c66000830184611a4b565b9291505056fea26469706673582212205777fdd5db7cb090a3957a357b172c9e2060e21f72c9d1592e83dfbd8f7c646864736f6c63430008130033",
  "immutableReferences": {},
  "source": "// SPDX-License-Identifier: MIT\r\npragma solidity ^0.8.0;\r\n\r\ncontract SupplyChain {\r\n    \r\n    // Product stages in supply chain\r\n    enum Stage {\r\n        Produced,\r\n        Processed, \r\n        Shipped,\r\n        Received,\r\n        Sold\r\n    }\r\n    \r\n    // Stakeholder types\r\n    enum StakeholderType {\r\n        Farmer,\r\n        Distributor,\r\n        Retailer,\r\n        Consumer\r\n    }\r\n    \r\n    // Product structure\r\n    struct Product {\r\n        uint256 id;\r\n        string name;\r\n        string origin;\r\n        address farmer;\r\n        uint256 harvestDate;\r\n        uint256 price;\r\n        Stage currentStage;\r\n        bool exists;\r\n    }\r\n    \r\n    // Stakeholder structure\r\n    struct Stakeholder {\r\n        address stakeholderAddress;\r\n        string name;\r\n        StakeholderType stakeholderType;\r\n        bool isRegistered;\r\n    }\r\n    \r\n    // Transaction structure for tracking\r\n    struct Transaction {\r\n        uint256 productId;\r\n        address from;\r\n        address to;\r\n        uint256 timestamp;\r\n        uint256 price;\r\n        Stage stage;\r\n    }\r\n    \r\n    // State variables\r\n    mapping(uint256 => Product) public products;\r\n    mapping(address => Stakeholder) public stakeholders;\r\n    mapping(uint256 => Transaction[]) public productHistory;\r\n    \r\n    uint256 public productCounter;\r\n    address public owner;\r\n    \r\n    // Events\r\n    event ProductCreated(uint256 indexed productId, string name, address indexed farmer);\r\n    event ProductTransferred(uint256 indexed productId, address indexed from, address indexed to, Stage stage);\r\n    event StakeholderRegistered(address indexed stakeholder, string name, StakeholderType stakeholderType);\r\n    \r\n    // Modifiers\r\n    modifier onlyOwner() {\r\n        require(msg.sender == owner, \"Only owner can call this function\");\r\n        _;\r\n    }\r\n    \r\n    modifier onlyRegistered() {\r\n        require(stakeholders[msg.sender].isRegistered, \"Stakeholder not registered\");\r\n        _;\r\n    }\r\n    \r\n    modifier productExists(uint256 _productId) {\r\n        require(products[_productId].exists, \"Product does not exist\");\r\n        _;\r\n    }\r\n    \r\n    constructor() {\r\n        owner = msg.sender;\r\n        productCounter = 0;\r\n    }\r\n    \r\n    // Register stakeholder\r\n    function registerStakeholder(\r\n        string memory _name,\r\n        StakeholderType _type\r\n    ) public {\r\n        require(!stakeholders[msg.sender].isRegistered, \"Stakeholder already registered\");\r\n        \r\n        stakeholders[msg.sender] = Stakeholder({\r\n            stakeholderAddress: msg.sender,\r\n            name: _name,\r\n            stakeholderType: _type,\r\n            isRegistered: true\r\n        });\r\n        \r\n        emit StakeholderRegistered(msg.sender, _name, _type);\r\n    }\r\n    \r\n    // Create new product (only farmers)\r\n    function createProduct(\r\n        string memory _name,\r\n        string memory _origin,\r\n        uint256 _price\r\n    ) public onlyRegistered returns (uint256) {\r\n        require(\r\n            stakeholders[msg.sender].stakeholderType == StakeholderType.Farmer,\r\n            \"Only farmers can create products\"\r\n        );\r\n        \r\n        productCounter++;\r\n        \r\n        products[productCounter] = Product({\r\n            id: productCounter,\r\n            name: _name,\r\n            origin: _origin,\r\n            farmer: msg.sender,\r\n            harvestDate: block.timestamp,\r\n            price: _price,\r\n            currentStage: Stage.Produced,\r\n            exists: true\r\n        });\r\n        \r\n        // Add initial transaction\r\n        productHistory[productCounter].push(Transaction({\r\n            productId: productCounter,\r\n            from: address(0),\r\n            to: msg.sender,\r\n            timestamp: block.timestamp,\r\n            price: _price,\r\n            stage: Stage.Produced\r\n        }));\r\n        \r\n        emit ProductCreated(productCounter, _name, msg.sender);\r\n        return productCounter;\r\n    }\r\n    \r\n    // Transfer product to next stage\r\n    function transferProduct(\r\n        uint256 _productId,\r\n        address _to,\r\n        uint256 _price,\r\n        Stage _newStage\r\n    ) public onlyRegistered productExists(_productId) {\r\n        Product storage product = products[_productId];\r\n        \r\n        // Basic validation\r\n        require(_newStage > product.currentStage, \"Invalid stage transition\");\r\n        require(stakeholders[_to].isRegistered, \"Receiver not registered\");\r\n        \r\n        // Update product stage and price\r\n        product.currentStage = _newStage;\r\n        product.price = _price;\r\n        \r\n        // Add transaction to history\r\n        productHistory[_productId].push(Transaction({\r\n            productId: _productId,\r\n            from: msg.sender,\r\n            to: _to,\r\n            timestamp: block.timestamp,\r\n            price: _price,\r\n            stage: _newStage\r\n        }));\r\n        \r\n        emit ProductTransferred(_productId, msg.sender, _to, _newStage);\r\n    }\r\n    \r\n    // Get product details\r\n    function getProduct(uint256 _productId) public view productExists(_productId) \r\n        returns (\r\n            uint256 id,\r\n            string memory name,\r\n            string memory origin,\r\n            address farmer,\r\n            uint256 harvestDate,\r\n            uint256 price,\r\n            Stage currentStage\r\n        ) {\r\n        Product memory product = products[_productId];\r\n        return (\r\n            product.id,\r\n            product.name,\r\n            product.origin,\r\n            product.farmer,\r\n            product.harvestDate,\r\n            product.price,\r\n            product.currentStage\r\n        );\r\n    }\r\n    \r\n    // Get product history\r\n    function getProductHistory(uint256 _productId) public view productExists(_productId) \r\n        returns (Transaction[] memory) {\r\n        return productHistory[_productId];\r\n    }\r\n    \r\n    // Get stakeholder info\r\n    function getStakeholder(address _address) public view \r\n        returns (\r\n            string memory name,\r\n            StakeholderType stakeholderType,\r\n            bool isRegistered\r\n        ) {\r\n        Stakeholder memory stakeholder = stakeholders[_address];\r\n        return (\r\n            stakeholder.name,\r\n            stakeholder.stakeholderType,\r\n            stakeholder.isRegistered\r\n        );\r\n    }\r\n    \r\n    // Get all products (for demonstration - in production, use pagination)\r\n    function getAllProducts() public view returns (uint256[] memory) {\r\n        uint256[] memory productIds = new uint256[](productCounter);\r\n        for (uint256 i = 1; i <= productCounter; i++) {\r\n            productIds[i-1] = i;\r\n        }\r\n        return productIds;\r\n    }\r\n}",
  "sourcePath": "C:\\Users\\rites\\OneDrive\\Desktop\\Agro_link\\contracts\\SupplyChain.sol",
  "compiler": {
    "name": "solc",
    "version": "0.8.19+commit.7dd6d404.Emscripten.clang"
  },
  "schemaVersion": "3.4.16",
  "updatedAt": "2025-09-14T08:11:49.510Z",
  "devdoc": {
    "kind": "dev",
    "methods": {},
    "version": 1
  },
  "userdoc": {
    "kind": "user",
    "methods": {},
    "version": 1
  }
}